:100000000C948C020C9456210C94C4020C94C402DF
:100010000C94C4020C94C4020C94C4020C94C40248
:100020000C94C4020C94C4020C940B270C94DE278D
:100030000C94A91F0C94C4020C94C4020C94C40226
:100040000C94C4020C94C4020C94C4020C94C40218
:100050000C94C4020C9461200C94C4020C94C4024D
:100060000C94C4020C94C4020C94C4020C94C402F8
:100070000C94C4020C94C4020C94C4020C94C402E8
:100080000C94C4020C94C4020C94C4020C94C402D8
:100090000C94C4020C94C4020C94C4020C94C402C8
:1000A0000C94C4020C94C4020C94C40229001E00D7
:1000B0001F002000210022002F002B00040016004A
:1000C000070009000A004C00E000E300E2002B00FA
:1000D00021524C002C003100130012000C001800BB
:1000E0001C002E00E500380037003600100011001B
:1000F0002A002D001700150008001A001400350012
:100100004C000500190006001B001D00E100300036
:100110002300240025002600270046002A000B00AB
:100120000D000E000F003300340028002A00225278
:100130005000510052004F00010001000100010079
:1001400001000100010001000100010001000100A7
:100150000100010001000100010001000100010097
:100160000100010001000100010001000100010087
:100170000100010001000100010001000100010077
:100180000100010001000100010001000100010067
:100190000100010001000100010001000100010057
:1001A0000100010001000100010001000100010047
:1001B0000100010001000100010001000100010037
:1001C0000100010001000100010001000100010027
:1001D0000100010001000100010001000100000018
:1001E000000000000000000000000000000000000F
:1001F00000000000000000000000000000000000FF
:1002000000000000000000000000010001000100EB
:1002100001000100010001000000000000000000DA
:1002200000000000000000000000000000000000CE
:1002300000000000000000000000000000000000BE
:1002400000000000000000000000000000000000AE
:10025000000000000000000000000000000000009E
:10026000000000000000000000000000000000008E
:10027000000000000000000000000000000000007E
:10028000000000000000000000000000000000006E
:10029000000000000000000000000000000000005E
:1002A000000000000000000000000000000000004E
:1002B000000000000000000000000000000000003E
:1002C000000000000000000000000000000000002E
:1002D000000000000000000000000000000000001E
:1002E000000000002A2B2800000000000000000091
:1002F0000000000000000029000000002C1E342037
:10030000212224342627252E362D3738271E1F205C
:100310002122232425263333362E37381F040506A1
:100320000708090A0B0C0D0E0F10111213141516E5
:100330001718191A1B1C1D2F3130232D35040506E3
:100340000708090A0B0C0D0E0F10111213141516C5
:100350001718191A1B1C1D2F3130354C00000000D6
:10036000000000000000000000000000000000008D
:10037000000000000000000000000000000000007D
:100380007E0F00D4FFFFFFC7000000781A0365004E
:10039000720067006F006E00650077005F0031003B
:1003A00030007800370000001C0341006E0064003C
:1003B0007200650077004B006C0065006D00650001
:1003C0006E00740000000403090409025B000301CD
:1003D00000A0FA0904000001030101000921110134
:1003E00000012244000705810308000109040100FF
:1003F000020300000009211101000122220007056B
:100400008203200001070503032000010904020004
:100410000103000000092111010001227B000705F2
:10042000840320000112010002000000084E4581F3
:10043000720001010200010660FF0961A101096269
:10044000150026FF00952075088102096315002616
:10045000FF00952075089102C005010902A10185E0
:10046000020901A1000509190129081500250195B6
:1004700008750181020501093009311581257F9533
:10048000027508810609381581257F950175088157
:1004900006050C0A38021581257F9501750881062D
:1004A000C0C005010980A101850319012AB7001503
:1004B0000126B700950175108100C0050C0901A146
:1004C00001850419012AA002150126A002950175D3
:1004D000108100C005010906A101050719E029E7FF
:1004E00015002501950875018102950175088101A6
:1004F0000507190029FF150026FF009506750881DC
:1005000000050819012905150025019505750191BA
:1005100002950175039101C011241FBECFEFDAE0EF
:10052000DEBFCDBF04B603FE18C08091D00290910B
:10053000D102A091D202B091D3028730904BA74054
:10054000B04B59F41092D0021092D1021092D20204
:100550001092D302E0E0F8E3099511E0A0E0B1E0E9
:10056000ECE9F5E502C005900D92A23CB107D9F780
:1005700022E0A2ECB1E001C01D92A03DB207E1F77C
:100580000E9413150C94682A0C9400008430B8F46F
:100590006A30A8F4473098F4E42FF0E097E0699FC0
:1005A000E00DF11D112496E4899FE00DF11D112449
:1005B000EE0FFF1FE455FF4F85919491089581E060
:1005C00090E0089581E008950E94E202089581E09C
:1005D00008950E94E20208950E94E9020895089594
:1005E0000E94EF020895A6E0B0E0E9EFF2E00C947B
:1005F000C42949835A839E833091C90189819A8194
:1006000031111AC03E81332399F0222389F00E94D0
:100610007B08182F682F89819A810E945708698169
:100620007A81812F0E946B0F2696E3E00C94E029DB
:100630000E946908182FF3CF0E947B0869817A8194
:10064000F1CFFC01262F4081518162817381848129
:1006500095810E94F3020895CF93DF93D82FC92F7D
:1006600061E00E9421036D2F7C2F0E94E402DF9144
:10067000CF910895CF93DF93D82FC92F60E00E94C8
:1006800021036D2F7C2F0E94F002DF91CF910895FE
:1006900081E008950E9448030895CF93C82F0E94D7
:1006A0004B078C2F0E944A032FEF84E39CE02150DC
:1006B00080409040E1F700C00000CF91089581E0B4
:1006C0000E944D030E948520089580E00E944D0302
:1006D0000E94A92008950F931F93CF93DF938C015D
:1006E00061E00E942103EC01B8010E94FF1C8823F5
:1006F00009F442C0B801CE010E94EC028823E1F166
:10070000B801CE010E940E1C8823B1F1B801CE01C0
:100710000E941E17882381F1B801CE010E94F316B2
:10072000882351F1B801CE010E944F1C882321F18A
:10073000F8018581882381F0CA35FCE7DF0739F1AC
:1007400078F4C130ECE7DE07F9F0C330FCE7DF07EF
:10075000C9F0C115DC4771F0C8010E94E7020DC065
:10076000CB35ECE7DE07B1F0CC35DC47A9F70E94CA
:100770009B0CF2CF0E945F0380E0DF91CF911F912D
:100780000F9108950E94AD0C0E946503F5CF0E9461
:10079000A50CE2CF0E94A90CDFCF0E94861F0E9409
:1007A000F40308950E94F8030E948B1F0895089592
:1007B00081E008950895CF93DF93D82F0E94D80346
:1007C000C82F882319F08D2F0E94DA038C2FDF9118
:1007D000CF9108950895CF93C82F0E94D7038C2FEF
:1007E0000E94DB03CF91089580E00E94EB030895FF
:1007F0000E94551E0E94EB030895CF930E94551E40
:10080000C82F8091C4018C1779F0C093C4010E9455
:1008100015206093C5017093C6018093C701909322
:10082000C8018C2F0E94EB03CF910895ADE0B0E09A
:10083000ECE1F4E00C94C529488759876A877B87E7
:100840008C879D8791110E94D80B1F8286E0FE0144
:100850003896DE01119601900D928A95E1F78D810F
:1008600081110DC029813A814B815C816D817E812E
:100870008F810E941E0B2D96E2E00C94E129CE019F
:1008800001960E942C038111EDCFF5CFFC018481EC
:10089000813021F4808191810E94A408089566230B
:1008A00029F00E948C180E94621908950E94EA188B
:1008B000FACFCF93C82F882399F08CEF8C0F813A11
:1008C00088F48C2F0E94E31E882329F08C2F0E942D
:1008D000281F0E94490C8C2F0E94201F0E94490C47
:1008E000CF91089580E28C0F883048F4C77081E082
:1008F00001C0880FCA95EAF70E94B90BEFCF8BE5CC
:100900008C0F833038F42C2F2452330BC9010E94F2
:10091000831EE6CFE8E5EC0FEB3150F4F0E0EE0F8C
:10092000FF1FE75CFE4F808191810E94A91ED8CFF6
:1009300083E38C0F8331A0F661E08C2F0E944F047B
:10094000CFCF882381F19CEF980F913A28F40E9431
:10095000281F0E94490C089590E2980F983050F497
:10096000877091E001C0990F8A95EAF7892F0E945C
:10097000BF0BEFCF9BE5980F933028F480E090E019
:100980000E94831E089598E5980F9B3128F480E01B
:1009900090E00E94A91E089593E3980F933118F4F4
:1009A00060E00E944F0408951F93CF93DF93182FA8
:1009B000EB010E945904209739F4812F0E94A10471
:1009C000DF91CF911F9108958FE99FE00197F1F793
:1009D00000C000002197EFCF60E070E0893311F490
:1009E00060E570E00E94D4040895882321F00E94FD
:1009F000B90B0E94490C0895882321F00E94BF0B77
:100A00000E94490C0895A0E0B0E0E9E0F5E00C9404
:100A1000BF296C01D62FC72FFC01158106810295D5
:100A20000F700E94AE0BE82E8823F9F0E12E1123FF
:100A3000E1F08C2F807F803461F080E28D0F883070
:100A4000F0F08C2F807E803221F4D230C0F0002371
:100A5000B1F08091A40282FF12C082E00E946E0C6D
:100A60000E94AE0B91E0E82EE926EC2FE295EF70A4
:100A7000C03CB0F5F0E0E659F54D0C94A829E12C06
:100A8000F4CF0C2F0F70C03110F00295007F1123AE
:100A900099F0002359F080E28D0F883010F0D111C9
:100AA00007C0802F0E94B90B0E94490C8D2F51C0A6
:100AB000802F0E94CA0BF8CF8D2F0E94A104002323
:100AC00079F080E28D0F883010F0D11104C0802FB2
:100AD0000E94BF0B03C0802F0E94D00B0E94490CC4
:100AE000EE2089F00E94AA0B80FD0DC0F601158250
:100AF0000E94A40B0E94C507C6010E9412070E9413
:100B0000A40B0E94D107CDB7DEB7E8E00C94DB2937
:100B1000FC2FFF70FF2EC07FC03219F0F29480EFDF
:100B2000F822DD2341F0D130D1F1112309F444C082
:100B30000023F1F0BBCF8091A40282FD15C01123E8
:100B400059F0FF2029F08F2D0E94B90B0E94490C0B
:100B500080E00E945904C4CF80E00E94A104FF20DD
:100B600009F4BECF8F2DB4CF112369F0011104C059
:100B70008F2D0E94F504B4CF013009F0B1CF8F2D35
:100B80000E94F00BADCF0111ABCF8F2D0E94FC0462
:100B90008F2D0E94FC0B8F2D0E94DF0BA1CF112304
:100BA00021F0063008F09CCFE3CF053008F098CF55
:100BB0008F2D0E94FC0494CF0023D1F3D93349F444
:100BC0002FEF87EE93E0215080409040E1F700C086
:100BD00000008D2F0E94A10483CF8C2F86958695CF
:100BE0008370882369F0813009F07ACF8D2F9C2F94
:100BF0009370111102C080E090E00E94A91E70CF96
:100C00008D2F9C2F9370111102C080E090E00E9404
:100C1000831E66CF612F8D2F0E944F0461CF8C2FD2
:100C20008370811134C0111124C04D2F4295469517
:100C30004770440F440F8D2F8F70042E01C0880F12
:100C40000A94EAF7D071DD2341F02FE030E001C0D3
:100C5000220F4A95EAF7D22FD095C695C695C37054
:100C60008D2BC23071F0C33079F0C13039F00E9461
:100C7000A1070E94551E0E94EB0332CF0E949B07E2
:100C8000F8CF0E94A707F5CF0E949807F2CF112353
:100C900039F1C0FFEECF4D2F429546954770440F76
:100CA000440F8D2F8F70042E01C0880F0A94EAF72D
:100CB000D071DD2341F02FE030E001C0220F4A95D2
:100CC000EAF7D22FD095C695C695C3708D2BC2304A
:100CD00069F0C33071F0C13031F00E94F307C9CF21
:100CE000823038F2D8CF0E94ED07C3CF0E94F907B7
:100CF000C0CF0E94B307BDCFCF70112339F08C2F26
:100D00000E94C5078D2F0E94F504B3CF8D2F0E943E
:100D1000FC048C2F0E94D107ACCFD23F31F170F48C
:100D2000D03FB9F0D13FB1F1112309F451C00023F4
:100D300009F44BC08D2F0E9459049BCFD33FE1F0A3
:100D4000D43F21F11111F3CF011150C08C2F8F71BD
:100D5000E1CF112341F0053008F08BCF8C2F8F713C
:100D60000E94E10786CF0530F7CF8C2F8F711111CC
:100D7000D1CF0E94C5077DCF112329F08C2F8F7111
:100D80000E94BC0776CF0E94B80773CF8091A4025F
:100D900082FD06C08C2F8F71112309F4BBCFE9CFE0
:100DA000112349F0CF718C2F0E94C50763E08C2F6F
:100DB0000E94500C5ECF81E00E946E0C023008F45D
:100DC00058CF82E00E946E0C54CF8C2F8F71D1CF00
:100DD000002309F4BBCFD93349F4EFEFF7EE23E05A
:100DE000E150F0402040E1F700C000008D2F0E944C
:100DF000A1043FCF0F931F93CF93DF93EC01688142
:100E000079818D810E94B1088C010E94FF070E94A8
:100E10009707B801CE010E940305DF91CF911F9182
:100E20000F910895CF93DF93EC018C81882399F083
:100E3000CE010E946B03811111C00E94AE0B88236A
:100E400051F08D81882339F08091A40282FF03C084
:100E500082E00E946E0CDF91CF910895CE010E9436
:100E6000FA06CE010E943A03F6CF80E090E00E949D
:100E7000831E80E090E00E94A91E0E94D80B0E9471
:100E8000490C0E947F190E94621908950E94301F28
:100E90000E94350708950E94C70B0E9446070895D7
:100EA000282F92959F70963091F060F4925F9F701A
:100EB000923030F481E0203F79F030F4283E30F079
:100EC00080E008959A5FF3CF243FD1F7089581E041
:100ED000283EE0F3213FF9CF0895FC018481882367
:100EE00039F0808191810E94A4080E9450070895E2
:100EF00080E00895A6E0B0E0E0E8F7E00C94C529B2
:100F00002696E2E00C94E129A7E0B0E0EAE8F7E0F9
:100F10000C94C5292796E2E00C94E12908950E94DB
:100F20008E0708950E948F078093E6010895089523
:100F30000E94920708959091E601892B0E949207E2
:100F400008959091E60189230E9492070895909157
:100F5000E60189270E94920708950E948E0708954E
:100F60000E94AD0708950E94B0078093E50108959F
:100F700080E00E94B307089591E001C0990F8A951F
:100F8000EAF7892F0E94B307089521E030E001C0FD
:100F9000220F8A95EAF78091E501822B0E94B30720
:100FA000089521E030E0A90102C0440F551F8A9541
:100FB000E2F7CA0180959091E50189230E94B30769
:100FC000089521E030E001C0220F8A95EAF7809170
:100FD000E50182270E94B30708959091E501892BCE
:100FE0000E94B30708959091E50189230E94B307F9
:100FF00008959091E50189270E94B3070895089507
:101000009B01677091E001C0990F6A95EAF763E070
:10101000369527956A95E1F7B901660F771F260F78
:10102000371FFA01E20FF31F40E050E0682F70E035
:101030008191DF0111979B01042E02C036952795FF
:101040000A94E2F7217021952827292328272C9339
:101050004F5F5F4F4330510559F708959C01A82F0A
:10106000A77083E0369527958A95E1F7C901880F27
:10107000991F820F931FFB01E80FF91F40E050E01A
:1010800080E0219130E00A2E02C0369527950A941F
:10109000E2F721703327042E01C0220F0A94EAF7E9
:1010A000822B4F5F5F4F4330510559F70895282F2A
:1010B000862F9A3068F4273058F4622F70E027E0CA
:1010C000929F600D711D11244AEC51E00E940008AE
:1010D0000895292F9A3068F4873058F490E06AEC2C
:1010E00071E037E0239F800D911D11240E942E088E
:1010F000089580E00895A0E0B0E0E1E8F8E00C9405
:10110000C0297C010091E5018091E601082BC3E034
:10111000D0E010E0C8010C2E02C0959587950A9486
:10112000E2F780FD09C02197A8F7D12C8D2DCDB70E
:10113000DEB7E7E00C94DC29DC2EB7018C2F0E948F
:10114000770F019781F3F2CFCF93DF93D82FC92F79
:101150000E947B086D2F7C2F0E94770FDF91CF912B
:1011600008951F93CF93DF93162FD72F9091C90126
:10117000992341F0862F972F0E94A408DF91CF91E9
:101180001F910895882381F0862F972F0E947B0856
:10119000C82F682F812F9D2F0E945708612F7D2F08
:1011A0008C2F0E94770FEACF862F972F0E94690815
:1011B000C82FF4CFE1E0F0E0DF0102C0AA0FBB1FAF
:1011C0006A95E2F7BD01DF0102C0AA0FBB1F4A9575
:1011D000E2F76A2B01C0EE0F2A95EAF7962F9823C3
:1011E000961302C08E2B0895E0958E230895242F28
:1011F000462F682F8091E5010E94DA080E94B3070C
:1012000008950F931F93CF93E091E701C7E080917A
:10121000E8018E1304C0CF911F910F9108950E2FF6
:1012200010E0CE9FF0011124E751FE4F2081318163
:10123000428153816481758186810E948407F8010F
:101240003196E770E4CF2091210230912202409143
:101250002302509124026091250270912602809110
:1012600027020E948407089580912702803178F434
:1012700080912602882359F0E091E7012091E8014E
:10128000309122024091210257E02E1301C00895AF
:101290006E2F70E05E9FF0011124DF01A751BE4F59
:1012A00014968C911497882361F111968C91119763
:1012B000831327C08C91841324C015968C911597A5
:1012C00081111FC012968D919C91A0912302B09123
:1012D00024028A1B9B0B883C910598F4809127027D
:1012E0008F70806180932702E151FE4F80818F7063
:1012F0008061808381E292E00E9412070E940109CE
:101300000895FB013196E770C0CFE091E70190911D
:10131000E80127E0E91302C080E00895AE2FB0E0B5
:101320002E9FF0011124E751FE4F3181361306C084
:101330003081381303C03581341304C0FD01319668
:10134000E770E8CF81E008958F929F92AF92BF92AD
:10135000DF92EF92FF920F931F93CF93DF93CDB75E
:10136000DEB72D970FB6F894DEBF0FBECDBF8C0150
:1013700086E0F801DE01189601900D928A95E1F75A
:10138000F801E080F580A280B380848191E2892E0B
:1013900092E0992E9091250291111BC0882309F4A7
:1013A000FCC0FF2009F43DC1C8010E946D078823DD
:1013B00009F437C187E0F801D40101900D928A95B4
:1013C000E1F7C4010E9446040E9434090E942309E7
:1013D000E4C0D09026022091230230912402A5017E
:1013E000421B530BDD2009F4DBC0483C510508F0DB
:1013F000A6C0882309F4D1C09091220291808091E7
:101400002702803108F06BC0991228C09091210208
:101410009E1124C0F1105DC08F70806180932702FF
:101420000E94230981E292E00E9412078091270224
:10143000F8018683F12C8F2D2D960FB6F894DEBF20
:101440000FBECDBFDF91CF911F910F91FF90EF9015
:10145000DF90BF90AF909F908F900895F11039C0AA
:1014600040E0692D8E2D0E94850940E0692D8E2D6A
:101470000E948509F82E8111DDCF888599850E940B
:10148000A408292F22952F70903450F49F70223099
:1014900080F0992399F0F8019681903178F4CBCFC0
:1014A0002A5F2F70223078F0C8010E941207FD2CAD
:1014B000C2CF992319F0882309F4BDCF805E88300C
:1014C00008F4B9CFF1CF803F08F4B5CF815F823007
:1014D000F7CF80912702816080932702ABCF9912CA
:1014E00007C0909121029E1103C0FF2009F479C02A
:1014F000C8010E946D07882309F493C0FF2009F4F6
:1015000090C080912702803288F020912102309192
:1015100022023A832983BC82AB82909125029D836B
:101520001E828F83CE0101960E94120787E0F80188
:10153000A1E2B2E001900D928A95E1F745CF90913A
:1015400027029031A0F4488559856A857B858C8572
:101550009D850E947A0781E292E00E94120787E04F
:10156000F40111928A95E9F70E94230963CF882339
:10157000A1F02091220281812813BACF809121020B
:101580008E11B6CFF110B4CF9683C8010E94120716
:1015900087E0F40111928A95E9F7FF24F3944BCF89
:1015A000483C510508F041C08823B9F3FF20C9F138
:1015B00090912202818198132AC0809121028E117C
:1015C00026C08091270280FD19C08031B8F0868343
:1015D000807F803F39F08681982F907F905F8F7059
:1015E000892B8683C8010E94120787E0F801A1E2D7
:1015F000B2E001900D928A95E1F7E8CE87E0F8011C
:10160000A1E2B2E001900D928A95E1F7C6CFC80140
:101610000E946D0781118ACF80912702816080939B
:101620002702C8010E941207B8CF488559856A85EC
:101630007B858C859D850E947A0791CFAEE0B0E0D6
:10164000E4E2FBE00C94C429288739874A875B874A
:101650006C877D878E87CE0108960E94A409882317
:10166000B1F06C85662341F0288539854A855B8514
:101670007D858E850E94840717E08091E701909117
:10168000E80189133EC02E96E3E00C94E02987E040
:10169000FE013896DE01119601900D928A95E1F7D0
:1016A0002091E8014091E7018C85882329F330E0FF
:1016B000C90101968770992750E08417950799F022
:1016C00097E0929FD001939FB00D1124A751BE4F78
:1016D000FE01319601900D929A95E1F78093E80111
:1016E0000E940109C9CF0E944B071092E801109295
:1016F000E70187E0E1E2F2E0DF011D928A95E9F778
:10170000BBCF189FC001112487519E4F0E94A4098E
:10171000882309F4B8CFE091E7011E9FF00111245E
:10172000E751FE4F2081318142815381648175816F
:1017300086810E9484078091E70190E0019687707E
:1017400099278093E70199CF8091300286958695FD
:1017500086950895809130028770089590913002A7
:10176000977081E0911101C080E0089580913C0262
:10177000089590913C02982B90933C020895982FE5
:10178000909580913C02892380933C0208951092A9
:101790003C02089590913B02982B90933B02089550
:1017A000982F909580913B02892380933B02089566
:1017B00010923B02089508950E94DB0B08959091CA
:1017C0003102292F2823222331F080958923809309
:1017D00031020E94DC0B089508950E94EC0B0895DD
:1017E00090913202292F2823281729F0982B9093C3
:1017F00032020E94ED0B089590913202292F282386
:10180000222331F080958923809332020E94ED0BD0
:10181000089580913202882329F01092320280E0EC
:101820000E94ED0B08950F931F93CF93DF930091C8
:10183000000110910101C0913C0280913B02C82B34
:10184000D0913202DD2331F00E94CF1E81110E941F
:10185000090CCD2BF801C083C0910001D09101018A
:1018600048E050E068E272E0CE010E94002A892B35
:1018700059F088E0FE01A8E2B2E001900D928A954D
:10188000E1F7CE010E94691EDF91CF911F910F9168
:1018900008950E94130C089508950E944C0C089519
:1018A0009091A40292FF11C098E0899F90011124A9
:1018B000622B609330020E94C507809130028695AA
:1018C000869586950E944D0C08950E94C50708953F
:1018D0001092300280E00E944D0C089590913002E9
:1018E0008095892380933002282F277021110DC005
:1018F000891759F09091A40292FF07C086958695AA
:1019000086950E94D1070E94680C08959091A402C8
:1019100092FB222720F9281769F080FB92F9909317
:10192000A4028091A3029091A4020E94CF0C82E0B5
:101930000E946E0C08958091A40282FB882780F992
:1019400091E089270E94860C089581E00E94860C10
:10195000089580E00E94860C08956FEF7FEF80E08D
:1019600090E00E94522A089580E090E00E941E2A92
:10197000863E9E4F19F40E948A1C089580E00895C7
:1019800082E090E00E94162A089583E090E00E9491
:10199000162A089584E090E00E941E2A0895BC0152
:1019A00084E090E00E94522A0895AB01BC018FE0D0
:1019B00090E00E94462A0895AB01BC0183E190E0CB
:1019C0000E94462A089560E070E0CB010E94DC0C82
:1019D000089560E070E0CB010E94D50C0E94E30CFA
:1019E0000895A8E0B0E0E7EFFCE00C94C52966EEAE
:1019F0007EEF80E090E00E94522A60E082E090E07A
:101A00000E94342A81E08093E60161E083E090E067
:101A10000E94342A60E074E184E090E00E94522A3F
:101A200060E086E090E00E94342A60E087E090E089
:101A30000E94342A40E050E0BA0188E090E00E9421
:101A4000462A60E084E290E00E94342A60E087E168
:101A500090E00E94342A60E08CE090E00E94342AFA
:101A600060E08DE090E00E94342A19821A821B8285
:101A70001C821D821E821F82188648E050E068E1A9
:101A800070E0CE0101960E94242A40E050E0BA01A5
:101A900080E290E00E94462A80E00E94A31C0E94FF
:101AA000E11C0E94E90C2896E2E00C94E1290E94D6
:101AB000F10C0895682F8EE090E00E94342A08957A
:101AC000A6E0B0E0E6E6FDE00C94C3290E94092000
:101AD0008C0180913D0290913E028017910779F030
:101AE00019821A820E940920BC0149815A8180E032
:101AF00090E00E94160410933E0200933D02269649
:101B0000E4E00C94DF290E94A51060934D027093CD
:101B10004E0280934F02909350026093490270935B
:101B20004A0280934B0290934C02089508950895C1
:101B30000E94960D089508950E949B0D089581E0DE
:101B4000089588ED90E10E9420150E94970D0E9453
:101B5000980D08950E94B0120895089508950E9466
:101B6000AD0D0E94AE0D08950E94B40C811102C00B
:101B70000E94570D0E94C00C809351020E94CA0C13
:101B80009093A4028093A3020E9443150E94C50C67
:101B90000E9498078091E5010E94B00708950E9475
:101BA00000200E946F100E94F11C0E94B8120E9437
:101BB000EC110E94B40D0E94EA030E9446150E9497
:101BC000CA120E949C0D0895A6E0B0E0EAEEFDE086
:101BD0000C94BC290E949F0D81110CC00E94600DC5
:101BE0000E94B0120E94A0190E94FD032696EBE00D
:101BF0000C94D8290E9410128FE3A82E82E0B82EF0
:101C0000750110E0F70101917F01812F0E94E21020
:101C10001F5F1A3009F443C00817A1F380915102E5
:101C200081FD0E94E8100E94AA0DC82E00E09924B0
:101C30009394802F0E94E210182FF50191915F017B
:101C4000891739F1D82ED926F12CEE24E3948E2D64
:101C50008D218823B1F0CC20A1F0F9820A830E9463
:101C600009209C838B839D8291E08E2D812381119D
:101C700001C090E049815A816B817C818D810E94F5
:101C80001604F394EE0CF7E0FF12E1CFF501319763
:101C900010830F5F0A3069F60E94830DA1CF0813ED
:101CA000BDCF9CCF1F93CF93DF930E947C0FEC019D
:101CB000811522E5920708F053C0811540E594078D
:101CC00008F0DDC0803E9105F8F48D3C910508F0E8
:101CD000AEC0883A910580F4853A910508F099C024
:101CE0008130910521F00497813A910550F4CE019D
:101CF000DF91CF911F910895885A91094B9708F46D
:101D00008BC0C0E0D0E0F3CF811550E49507F8F424
:101D1000C11580E2D80708F0CBC0C83ED10538F322
:101D2000CE019A9581159F4160F78D2F0E9420105A
:101D3000182FCE0199270E947C0F212F30E0322FDF
:101D40002227E901CC27DF71C82BD92BD0CF9927C7
:101D50000E947C0FCC27DF70C82BD92BD06AC7CF4D
:101D6000803842E59407C8F5803652E5950708F0BB
:101D700067C0C03482E5D807B0F08C2F8695869571
:101D8000877020E2829FC0011124C37021E030E0FF
:101D9000A90102C0440F551FCA95E2F7EA01C82BFA
:101DA000D92BDC68A4CFC03252E5D50708F041C07A
:101DB0008C2F8695869520E2829FC0011124C370E6
:101DC00021E030E0A90102C0440F551FCA95E2F797
:101DD000EA01C82BD92BDD688ACF803C52E59507F4
:101DE00060F48F71C03AD24508F03FC090E0982F60
:101DF0008827EC01C46FD06A7ACF805C92458097C7
:101E000008F07FCFDC2FCC27CC27DF71C06FD06AE2
:101E10006ECFA497D0646BCFC85AD0E0CC0FDD1F33
:101E2000C159DE4F0990D881C02DD46460CFD065F0
:101E30005ECFCF71D0E0DC2FCC27C16FD06A57CFF7
:101E400086958695877020E2829FC0011124C37019
:101E500021E030E0A90102C0440F551FCA95E2F706
:101E6000EA01C82BD92BDA6842CF0E942010C82F74
:101E7000D0E0DC2FCC27CC27DF71D06238CF8F7138
:101E80000E94201065E0D695C7956A95E1F7CF705E
:101E9000D0E0DC2FCC27282F30E084FF05C054E0B1
:101EA000220F331F5A95E1F7C22BD32BD0691FCFD6
:101EB0008D2F8F710E942010182FCE0199270E941C
:101EC0007C0F212F30E0322F222722273F71282B31
:101ED000392BE901D2CF462F672F7A3028F44730CB
:101EE00018F40E941116089580E090E008950E9471
:101EF0006B0F0E94520E0895803E9105D1F1C8F4F7
:101F00008133910509F47FC048F48932910509F4C1
:101F10006FC08A32910509F47DC008958933910517
:101F2000E1F082389105C9F08533910509F45BC071
:101F30000895843E9105D1F148F4823E910531F136
:101F4000833E910541F181EE90E00895863E910532
:101F5000C1F1873E9105E1F108952091A30223701C
:101F6000211165C02091A40223FF14C089E290E0F2
:101F700008952091A30220FD43C03091A40230FFB8
:101F800009C024FF4EC080E090E008952091A30294
:101F900022FDF7CF08952091A30222FD45C0309184
:101FA000A40230FD44C024FFF5CFEDCF2091A40260
:101FB00021FFF0CF8091A30284FDE5CF87EE90E072
:101FC00008952091A30223FFE5CF24FDDCCFF6CFB7
:101FD0002091A30223FD2EC03091A40231FFE3CF54
:101FE00084EE90E008952091A30225FFD3CFBECFC9
:101FF0002091A30225FD21C02091A40223FFCACF76
:1020000089E390E008952091A30226FFC3CF8AE2DE
:1020100090E008952091A30226FFBCCF81E390E0D9
:10202000089583EE90E0089582EE90E0089580EEAA
:1020300090E0089586EE90E0089585E390E0AACFC1
:102040009091A30292FF10C041E0282F2471243008
:1020500009F040E031E0282F2871283009F030E005
:10206000431711F02CE0822793FF10C041E0282F86
:102070002471243109F040E031E0282F2871283103
:1020800009F030E0431711F02CE082273091A402D0
:1020900030FF10C051E0282F2171213009F050E0AD
:1020A00041E0282F2871283009F040E0541711F042
:1020B00029E0822731FF10C041E0282F2171213112
:1020C00009F040E031E0282F2871283109F030E094
:1020D000431711F029E0822794FD877E089510921E
:1020E000A5021092A6021092A7021092A8020895CB
:1020F000CF92DF92EF92FF92CF93DF9300D000D088
:10210000CDB7DEB76B017C010E94B012811112C005
:102110000E94152069837A838B839C83C61AD70A11
:10212000E80AF90AC092A502D092A602E092A7029C
:10213000F092A8020F900F900F900F90DF91CF9127
:10214000FF90EF90DF90CF900895A4E0B0E0EBEA2D
:10215000F0E10C94C5290E94B012882371F00E940E
:10216000152069837A838B839C8369817A818B8133
:102170009C812496E2E00C94E1290E941520698359
:102180007A838B839C838091A5029091A602A09173
:10219000A702B091A80229813A814B815C81280F66
:1021A000391F4A1F5B1F29833A834B835C83DDCF32
:1021B00080E0089508950E94DA10089508950E941D
:1021C000DE100895E82FF0E0EC54FD4F8081089573
:1021D000089580EA8A95F1F7089500C008950E9455
:1021E000E910089508950E94F2100895A5E0B0E066
:1021F000ECEFF0E10C94C0290E94B012182F60910E
:10220000BE02882309F445C01A821982FE01339662
:1022100083E0DF011D928A95E9F7862F90E03297DF
:102220007F01BF018C549D4F0E94D812DE2C0F2DD0
:102230008823B9F08091A90290E045E050E0B70111
:102240008C549D4F0E94002A21E020935202892B3A
:1022500099F410E00E94DF10812F2596E7E00C949E
:10226000DC29809152028823A1F385E0D7011D92D9
:102270008A95E9F710925202A091A902B0E0AC54FD
:10228000BD4F85E0ED2DF02F01900D928A95E1F77D
:10229000E1CF70E06C547D4F8091A90290E08C54A6
:1022A0009D4F0E9461130E94F310D6CFF894E82F3F
:1022B000E295EF70F0E041A18F7021E030E0B901CC
:1022C00002C0660F771F8A95E2F7CB01962F909593
:1022D000942391A392A1892B82A3789408950F93BC
:1022E0001F93CF93DF93CCEAD1E089918F3F11F018
:1022F0000E94561181E0C13BD807B9F7C5EAD1E089
:102300000CEA11E089918F3F11F00E9456110C17D1
:102310001D07C1F7DF91CF911F910F910895A0E0A4
:10232000B0E0E5E9F1E10C94BF29EC01D62E062FCF
:1023300010E0C80184559E4F7C01FC0180818F3FD5
:1023400009F445C0F894E82FE295EF70F0E091A110
:102350008F7021E030E001C0220F8A95EAF7892FC3
:10236000822B81A382A12095282322A378940E9406
:10237000ED10E5EAF1E091E0C12C81918F3F81F011
:10238000A82FA295AF70A05EB0E02C9130E08F70C6
:1023900002C0359527958A95E2F72170892F211182
:1023A00080E0C82A990F81E0EC3AF80731F7F7018D
:1023B00080818F3F11F00E94561161E0C11001C071
:1023C00060E08D2D0E94EF10C00FD11FC882CDB7E5
:1023D000DEB7E8E00C94DB298091020180910201D4
:1023E00090E0811101C095E09093BE0285E0891BC9
:1023F0008093A9020E946F118AE0E4EBF2E0DF0112
:10240000982F1D929A95E9F7EAEAF2E0DF011D9212
:102410008A95E9F785E00E9451120E94DB10089529
:10242000AAE0B0E0E6E1F2E10C94C2291A82198236
:10243000FE01339688E0DF011D928A95E9F7F12CC1
:102440008E010F5F1F4F6F2DC8010E948F11F394F3
:10245000B5E0FB12F8CF4AE050E0B8018AEA92E01A
:102460000E94002A21E0892B99F420E06091BE02AD
:1024700070E06C547D4F45E08AEA92E00E9452126F
:10248000182F0E94F610812B2A96E5E00C94DE2985
:102490008AE0F801AAEAB2E001900D928A95E1F78C
:1024A000E5CF0895A0E0B0E0E8E5F2E10C94BF29A3
:1024B000D82EE92EF62ED72F042FC22F222379F003
:1024C00081E0809355020E940920909354028093EA
:1024D000530280E0CDB7DEB7E8E00C94DB29C09072
:1024E0005502CC20B1F380915302909154020E9486
:1024F0003220059770F310E0A8016D2D7E2D8F2DF1
:102500009D2F0E94002A892B41F0A8016D2D7E2D60
:102510008F2D9D2F0E940D2ACC2D109255028C2FAD
:10252000D9CF0F931F93CF9308EC10E00E948E2910
:10253000C82F81110DC08FE39CE90197F1F700C00E
:102540000000015011090115110581F70E94892928
:102550008C2FCF911F910F9108958091590208956A
:102560008091580208950E94B01291E08927089541
:102570000E949112809358020E94B31280935902D4
:102580000E94AD12809302010E94B01281110E943C
:102590000E1308950E94B012811102C00E941113FF
:1025A000089581E090915A029A3008F080E00895F1
:1025B0000F931F93CF93DF93EC01162F072F80917A
:1025C0005A028A3090F4612F702FCE010E945E1360
:1025D000811121C080915A028F3FB1F40E940920DD
:1025E000909357028093560209C0809156029091B1
:1025F00057020E943220843F914028F780E0DF910B
:10260000CF911F910F9108958F5F80935A028A3066
:1026100028F781E0F4CF10925A02FBCF0E940E21DE
:1026200008950E9411210895A0E0B0E0EAE1F3E1ED
:102630000C94BF29FA0169017801C82F880FDD0BBE
:102640003097B1F0DE0193E0AA0FBB1F9A95E1F736
:10265000AD5FBE4F11968D919C911297855A9D4FFB
:102660004C9150E0E417F50708F4AF010E940D2AE1
:10267000CE010E94FC21182F8823D1F0E114F1042F
:10268000B9F083E0CC0FDD1F8A95E1F7FE01ED5F25
:10269000FE4F438150E0E416F50608F4A701CD5F34
:1026A000DE4F6C817D81655A7D4FC6010E940D2AE7
:1026B000812FCDB7DEB7E8E00C94DB290E94A2148D
:1026C00008950E94C6140895A8E0B0E0EAE6F3E198
:1026D0000C94C32980917B0290917C02A0917D0291
:1026E000B0917E02BC01CD010E94412011E0643610
:1026F00071058105910520F10E94A510DC01CB0137
:102700000296A11DB11D89839A83AB83BC8300E02F
:1027100010E020E030E044E050E0BE016F5F7F4F0A
:1027200083E00E941413182F882351F00E94152073
:1027300060937B0270937C0280937D0290937E0273
:10274000812F2896E4E00C94DF29A6E0B0E0EBEAC4
:10275000F3E10C94C3298E839D836091B101709144
:10276000B2016A5F7F4F45E050E00E94002A8C0171
:102770008091770290917802A0917902B0917A02CB
:10278000BC01CD010E94412064367105810591058F
:1027900018F401151105B9F000E010E020E030E078
:1027A00045E050E06E817D8182E00E941413882311
:1027B00059F00E94152060937702709378028093FD
:1027C000790290937A0281E02696E4E00C94DF2966
:1027D000AAE0B0E0EEEEF3E10C94BD297B01A090FD
:1027E000B101B090B20101E010E09E012A5F3F4FBD
:1027F00040E050E060E070E080E00E941413182F89
:10280000882309F44DC065018FEFC81AD80A80915A
:10281000730290917402A0917502B0917602BC018E
:10282000CD010E9441206F83788789879A8764361B
:1028300071058105910560F105E010E09E012F5FB3
:102840003F4F40E050E060E070E081E00E941413F0
:10285000182F65E070E0C6010E9447159E8198130D
:102860002AC0112341F10E941520609373027093D6
:102870007402809375029093760285E0FE01319692
:10288000AEE6B2E001900D928A95E1F781E014C0C6
:1028900065E070E0C6010E9447159E818913CCCF88
:1028A00085E0F5013196DE01119601900D928A9531
:1028B000E1F71111E2CF80E095E0EEE6F2E0D7011A
:1028C00001900D929A95E1F72A96EAE00C94D929A5
:1028D000A0E0B0E0EEE6F4E10C94BD29F82EE92E7C
:1028E000B62EA72E8A010E94D112CC24C394D12CDB
:1028F000882319F08AE0C82ED12CC1E0D0E06B2DDE
:102900007A2D8F2D9E2DF8010995811116C02196E3
:10291000CC16DD0694F0CC9FC001CD9F900D900D9C
:10292000112420E030E045E34A95F1F700002F5FE5
:102930003F4F28173907B9F7E2CFCDB7DEB7EAE046
:102940000C94D9290F931F93CF93DF93D82FC92FBE
:102950008B0148EE53E10E946814811106C080E0AB
:10296000DF91CF911F910F91089545EA53E1B8018E
:102970008D2F9C2F0E946814882389F344E653E12D
:10298000B8018D2F9C2F0E946814EACF0F931F93DC
:10299000CF93DF938C01FB01C091B101D091B201C3
:1029A000CE01019625E0DC0101900D922A95E1F718
:1029B00065E070E00E9447158883FE01369685E049
:1029C000D80101900D928A95E1F76B857C858D8504
:1029D0009E8500916A0210916B0220916C023091E9
:1029E0006D02601771078207930751F060936A02C6
:1029F00070936B0280936C0290936D020E9478102A
:102A0000DF91CF911F910F9108950E94E3230E94BF
:102A1000CF0D0E94F02308950E94F5230E94E40D3B
:102A20000E940F2408950E94A21F0E94C9230E94A1
:102A3000A10D0E9405150E940C150E94AF0DFBCF41
:102A40009093C3018093C20108950E94AD0C089534
:102A500080E00E94E210817008950E9410122FEF12
:102A600086E791E0215080409040E1F700C00000EF
:102A70000E9410120E942815882321F00E9425151B
:102A80000E94852008950E942D1508950895FC0147
:102A9000680F791F8FEF91E3E617F70709F40895A0
:102AA0002191822728E030E087FF08C0880F89271E
:102AB0002150310921153105B9F7EECF880FF8CF34
:102AC00084E0089550E0440F551F9EE0699F400D3B
:102AD000511D11249CE8899F400D511D1124CA01EC
:102AE000899608950F931F93CF93DF938430C8F492
:102AF0006A30B8F44730A8F40E9462158C010E9435
:102B0000162AC82FD0E0DC2FCC27C80101960E94DE
:102B1000162A9E01282BC901DF91CF911F910F9199
:102B2000089580E090E0F8CF0F931F93CF93DF9349
:102B3000122F032F843078F46A3068F4473058F449
:102B40000E946215EC01602F0E94342A612FCE0191
:102B500001960E94342ADF91CF911F910F91089521
:102B60001F93CF93DF93D0E0C0E011C0412F6C2FB3
:102B70008D2F0E94C6029C01412F6C2F8D2F0E9429
:102B800094151F5F173091F7CF5FCA3011F010E036
:102B9000EDCFDF5FD43041F7DF91CF911F910895E2
:102BA000EF92FF920F931F93CF93DF938C01EA0173
:102BB0007A01E60EF71ECE15DF0529F4CDB7DEB794
:102BC000E6E00C94DD29003382E0180740F4C801E8
:102BD00089960E94162A89930F5F1F4FECCF80E0E1
:102BE000FACFEF92FF920F931F93CF93DF938C0155
:102BF000EA017A01E60EF71ECE15DF0529F4CDB7FE
:102C0000DEB7E6E00C94DD29003382E0180728F4F3
:102C10006881C80189960E94342A21960F5F1F4F50
:102C2000EBCF843038F46A3028F4473018F40E942F
:102C30007215089580E090E0089580E1089587EA94
:102C400091E00895EF92FF920F931F93CF93DF933C
:102C50008C01EA017A01E60EF71ECE15DF0529F494
:102C6000CDB7DEB7E6E00C94DD29073A81E018071E
:102C700048F4C801875A9D4F0E94162A89930F5F16
:102C80001F4FEBCF80E0FACFEF92FF920F931F938D
:102C9000CF93DF938C01EA017A01E60EF71ECE1581
:102CA000DF0529F4CDB7DEB7E6E00C94DD29073A5D
:102CB00081E0180730F46881C801875A9D4F0E944F
:102CC000342A21960F5F1F4FEACFCF93DF93C9E5D8
:102CD000D2E060E0CE010E94342A2196C11584E042
:102CE000D807B9F7DF91CF910895A8E0B0E0EBE7FE
:102CF000F6E10C94BF29F82E2FE0281708F46FC0D6
:102D00008FEF93E00E94162A811169C009E512E055
:102D1000F11038C01A821982FE01339686E0DF0175
:102D20001D928A95E9F76801BFEFCB1ADB0AC8014B
:102D30000E94162A89831A82882309F450C08130A0
:102D4000D1F4780122E0E20EF11CC6010E94162A9D
:102D50008A83882309F443C09FEF980F9330F8F4D7
:102D6000680183E0C80ED11CC7010E94162A8B831C
:102D70008823A9F11C8260E0CE0101960E94341BD9
:102D80008601D1CF011584E0180749F1C8010E94DE
:102D9000162A0F5F1F4F8111F5CFFA94B9CF8430F7
:102DA000B9F402E010E0C701AFEFEA1AFA0A0E9494
:102DB000162AE1E0F0E0EC0FFD1FE00FF11F808329
:102DC000882369F08C3731F4FE01E00FF11F128285
:102DD0006701D1CF0F5F1F4F0730110521F72896EC
:102DE000E8E00C94DB29CF93DF93EB0186319C471D
:102DF00019F50E94B60B9D819923A1F08A7A91E082
:102E0000811101C090E090937F02882349F085E30F
:102E10000E94201F0E94490C80E0DF91CF9108950D
:102E200089E2F6CF80917F02882321F085E30E941A
:102E3000281FF0CF89E2FBCF81E0EFCFCF93DF9364
:102E4000EC01FB018581882309F4D2C09E01305733
:102E50002332310508F0B2C00E94CA0C9093A4023C
:102E60008093A302FE01E150F047E232F10520F425
:102E7000EA58F54D0C94A8298091A30281608093B3
:102E8000A30293C08091A40288608093A4028DC0A5
:102E90008091A3028260F3CF8091A3028460EFCF80
:102EA0008091A3028860EBCF8091A4028160EDCF76
:102EB0008091A4028260E9CF8091A3028061DFCF7C
:102EC0008091A3028062DBCF8091A3028064D7CF80
:102ED0000E944B078091A3028068D1CF8091A3020A
:102EE0008C60CDCF8091A4028360CFCF8091A3026C
:102EF0008E7FC5CF8091A402877FC7CF8091A30228
:102F00008D7FBDCF8091A3028B7FB9CF8091A3022B
:102F1000877FB5CF8091A4028E7FB7CF8091A40226
:102F20008D7FB3CF8091A3028F7EA9CF8091A30222
:102F30008F7DA5CF8091A3028F7BA1CF0E944B07ED
:102F40008091A3028F779BCF8091A302837F97CF3D
:102F50008091A4028C7F99CF8091A30282FB992754
:102F600090F921E0922790FB82F990FB83F987CFBB
:102F70008091A402982F909591708E7F892B90FB61
:102F800081F983CF9091A302892F8F7B96FF806474
:102F900076CF0E944B079091A302892F97FB87F968
:102FA00080586DCF81E00E945A0D8091A3029091CC
:102FB000A4020E94CF0C0E944B0780E0DF91CF91CA
:102FC000089580E0F0CF9091A302892F8F7E94FF27
:102FD000806155CF9091A302892F8E7F90FF8160F1
:102FE0004ECF9091A402892F877F93FF88604DCFA9
:102FF00081E0E4CF282F35EB2303C001112497FF94
:1030000004C080589109892F089580589F4FFBCFA5
:103010008091860280FF0DC06091280170E0660FEC
:10302000771F60387105C0F561157105B9F1862FFC
:10303000089581FF07C06091280184E0689FB00176
:103040001124EFCF82FF04C06091280188E0F6CF01
:10305000809185028823E9F09091270160912801F1
:1030600070E0891730F093E0660F771F9A95E1F7CB
:10307000D8CF869F9001879F300D112483E0220FC7
:10308000331F8A95E1F7692F70E0C9010E949429E6
:10309000C8CF68E070E0CBCF8FE7089581E0089556
:1030A0008091860280FF0CC06091240170E07595CC
:1030B0006795759567956115710561F1862F08957E
:1030C00081FF06C06091240170E075956795F3CF8C
:1030D0006091240170E082FD15C0209184022223BA
:1030E000B1F0909123016091240170E0291750F410
:1030F000269FA001279F500D1124692F70E0CA015F
:103100000E94942960387105B0F28FE7089561E05C
:1031100070E0D4CF81E008959091890220918A02D5
:10312000922B20918C02922B20918B02922B99232F
:1031300031F098E09093850291E0909384028D3C69
:1031400031F40E940818819580938A020895E2E381
:10315000E80FE231B0F5F0E0E856F54D0C94A829FF
:103160000E940818F1CF0E94081881958093890267
:1031700008950E940818FACF0E94501880938B027D
:1031800008950E9450188195F9CF0E94501881959A
:1031900080938C0208950E945018FACF815D990B9C
:1031A00021E030E001C0220F8A95EAF78091880281
:1031B000822B80938802089580918602816080939B
:1031C00086020895809186028260F9CF80918602FE
:1031D0008460F5CF409189028D3C59F480918A0238
:1031E00087FF0DC010928A02442359F41092850281
:1031F00008C08E3C81F480918A0218169CF3442307
:1032000081F080918B0290918C02892B811159C0A1
:103210001092840208958F3C41F447FFF0CF109242
:10322000890280918A028823E0CF803D19F4141628
:10323000B4F3E5CF90918B02893D29F41916FCF681
:1032400010928B02DCCF8A3D19F497FFD8CFF8CFCC
:1032500090918C028B3D29F497FFD1CF10928C0274
:10326000CECF8C3D19F41916CCF3C9CF9FE2980F3D
:10327000983090F4815D990B21E030E0B90102C0F3
:10328000660F771F8A95E2F7CB01809590918802AF
:10329000892380938802B3CF8D3D31F480918602DB
:1032A0008E7F80938602ABCF8E3D21F48091860283
:1032B0008D7FF7CF8F3D09F0A2CF809186028B7F63
:1032C000F0CF08950E9409202091890230918A024E
:1032D000232B222321F0809382029093830220915A
:1032E0008B0230918C02232B222321F080938002C9
:1032F0009093810287E892E00E94741E089586E010
:10330000E7E8F2E0DF011D928A95E9F71092850265
:1033100010928402109286020895FC01828181112C
:103320000DC0838181110AC08481811107C081E0B1
:103330009581911101C080E08170089581E0FCCFFA
:10334000A6E0B0E0E6EAF9E10C94C22986E0E7E8FD
:10335000F2E09E012F5F3F4FD90101900D928A95B7
:10336000E1F71092890210928A0210928B02109259
:103370008C028B819C81892B8901882391F080911B
:103380008202909183020E9432209C0180918502EA
:103390008823C9F14091290150E04217530708F4EE
:1033A0003FC08D819E81892B882399F08091800276
:1033B000909181020E9432209C0180918402882396
:1033C00009F467C04091250150E04217530708F403
:1033D0006EC0B80187E892E00E943B1F811105C0D2
:1033E00087E892E00E948D1981110E94621986E09F
:1033F000F801A7E8B2E001900D928A95E1F72696D0
:10340000E5E00C94DE2940912A019AE0499FA00151
:1034100011244217530728F68F5F8093850202C05C
:103420008F3FD1F7FB80FF2059F00E94081891E0F0
:103430001F140CF09FEF899F802D11248093890227
:10344000FC80FF2059F00E94081891E01F140CF036
:103450009FEF899F802D112480938A028091890299
:10346000882309F49ECFF0908A02FF2009F499CFB7
:103470000E94FA17811101C081E0809389028F2D8B
:103480000E94FA17882319F080938A028ACF81E07C
:10349000FBCF409126019AE0499FA00111244217D9
:1034A000530708F096CF8F5F8093840202C08F3F4E
:1034B000D1F7FD80FF2059F00E94501891E01F14B1
:1034C0000CF09FEF899F802D112480938B02FE804A
:1034D000FF2059F00E94501891E01F140CF09FEF4C
:1034E000899F802D112480938C0280918B028823E8
:1034F00009F46FCFF0908C02FF2009F46ACF0E948C
:10350000FA17811101C081E080938B028F2D0E94F8
:10351000FA17882319F080938C025BCF81E0FBCFF0
:10352000A0E0B0E0E6E9FAE10C94BE29E82FF0E073
:10353000E452FD4FB490282F26952695269530E02D
:10354000F901E458FC4F0491877010E0082E02C086
:10355000159507950A94E2F701701127F901E459CE
:10356000FC4FE490F12C082E02C0F594E7940A94E5
:10357000E2F791E0E922FF24F901E45AFC4FC491FB
:10358000D0E002C0D595C7958A95E2F7C170DD27D6
:10359000C62ED12C0115110549F5E114F10431F0C5
:1035A00086EE0E945904C601009771F5B6018B2D75
:1035B0000E94D404C601009779F5E114F104A1F545
:1035C0000115110531F081EE0E94A104C60100979A
:1035D000C9F5CD2B31F08CE20E94EC04C114D1046A
:1035E000C9F5CDB7DEB7E9E00C94DA2981EE0E9487
:1035F0005904C601009789F2EFE9FFE03197F1F72E
:1036000000C000000197F6CFEFE9FFE03197F1F736
:1036100000C000000197C8CFEFE9FFE03197F1F754
:1036200000C000000197C7CF86EE0E94A104C6012A
:10363000009731F2EFE9FFE03197F1F700C00000A9
:103640000197F6CFEFE9FFE03197F1F700C00000F6
:103650000197BDCF8FE99FE00197F1F700C000000F
:1036600091E0C91AD108BACFEF92FF921F93CF937E
:10367000DF93EC01162F8881882309F45AC081302A
:1036800009F053C08981813071F47E0182E0E80E37
:10369000F11C8A810E94EC04E701812F90E00097E1
:1036A000E1F52196E8CF823041F47E01E2E0EE0EB2
:1036B000F11C8A810E945904EFCF833041F47E01CE
:1036C000F2E0EF0EF11C8A810E94A104E5CF843064
:1036D00011F02196E2CF2A81229680E090E06AE004
:1036E000AE014F5F5F4F2053330B2A30310550F04E
:1036F000009799F2EFE9FFE03197F1F700C0000081
:103700000197F6CF689FF001699FF00D1124C90160
:103710008E0F9F1F2981EA01E3CFEFE9FFE0319788
:10372000F1F700C000000197BACF612F0E94901AF4
:10373000B8CFDF91CF911F91FF90EF9008950F9335
:103740001F93CF93DF93C42FD22FFC018581882351
:10375000C9F040938F020E94092090938E028093BB
:103760008D0280E28C0F883040F4C77081E001C088
:10377000880FCA95EAF70E94F504DF91CF911F9157
:103780000F91089510918F0214133CC080918D0207
:1037900090918E020E943220883C910598F5C0E2FB
:1037A000CD0F1D1741F180E2810F883040F4177072
:1037B00081E001C0880F1A95EAF70E94FC04C83026
:1037C00020F0802F0E94EC04D8CF91E08D2F8770DD
:1037D00001C0990F8A95EAF7892F0E94F504802F7E
:1037E0000E94EC04D77081E001C0880FDA95EAF7F7
:1037F0000E94FC04C2CF802F0E94EC04C83008F065
:10380000BCCFF0CF80E28C0F883008F0B6CFC77005
:1038100081E001C0880FCA95EAF7EACF0F93FC0157
:10382000CB01E851FC47E730F10590F5E655F54D41
:103830000C94A82906E221EE41EE6AE17CE70E94A1
:103840009F1B80E00F91089507E225EE45EE6BE1A6
:103850007CE7F5CF06E221EE40EE68E17CE7EFCFB2
:1038600007E225EE44EE69E17CE7E9CF06E221EECE
:1038700042EE6CE17CE7E3CF07E225EE46EE6DE138
:103880007CE7DDCF08E221E045EE6EE17CE7D7CFB3
:10389000FB018581811110928F0281E0D3CFCF93FC
:1038A000DF939C01FB0127378CE7380739F0283775
:1038B0003C47F1F081E0DF91CF9108958581882325
:1038C00091F00E94811C0E94C5070E94871CD82F7E
:1038D0000E94841CC82F0E94811C4D2F6C2F0E94B7
:1038E000F70880E0E8CF0E94811C0E94D107EDCF4D
:1038F0008581882319F00E94841CE5CF0E94841CD6
:10390000F4CF80912D01089580912C01089580912C
:103910002B01089585E290E00E94162A843289F4F2
:1039200086E290E00E94162A833059F487E290E004
:103930000E94162A91E0843209F090E0892F81706C
:10394000089580E0FCCFCF93882391F064E285E274
:1039500090E00E94342AC4E263E086E290E00E9494
:10396000342A6C2F87E290E00E94342ACF91089588
:103970006FEF85E290E00E94342ACFEF6FEFEDCF3A
:103980000895A4E0B0E0E7ECFCE10C94C52988E2DE
:1039900090E00E94162A282F30E040E050E0CA0153
:1039A000B9012496E2E00C94E1290895CF93C62F43
:1039B0000E94D51C6C2F88E290E00E94342ACF919F
:1039C000089580E00E94A31C60E070E0CB010E949B
:1039D000D61C0E94B0150E94651681E00E94A31CAF
:1039E00008950E94C01C0E94C11C0E94D51C0E9408
:1039F0008A1C811102C00E94E11C089508959C0157
:103A0000FB018581882351F0A901575740385105A2
:103A100030F4822F0E94751680E0089581E00895A9
:103A20002FEFFC01208308950E94101D089580E06F
:103A30000895CF92DF92FF920F931F93CF93DF935E
:103A4000CDB7DEB72E970FB6F894DEBF0FBECDBF51
:103A50008D839E83F62E8D819E810E94171D81117C
:103A600015C0AD81BE81EC91E150E33140F5F0E04D
:103A7000EF54F54D0C94A829ED81FE8111828CE064
:103A800082836F2D8D819E810E94BE222E960FB65D
:103A9000F894DEBF0FBECDBFDF91CF911F910F9184
:103AA000FF90DF90CF900895AD81BE8111968C91EB
:103AB000833099F148F4813081F08230E9F08FEF62
:103AC000AD81BE818C93DDCF8430C9F7ED81FE815D
:103AD0001282138214821582D4CF0E9415200E9474
:103AE000AE296F83788789879A87ED81FE8162830B
:103AF000738384839583C5CF0E94C11C0E94AE2925
:103B00006B877C878D879E87AD81BE8112966D9372
:103B10007D938D939C931597B4CFED81FE810281A7
:103B200010E06F01F3E0CF0ED11C0A3011050CF04C
:103B3000A8CF802F0E94E210D6018D936D010F5FF8
:103B40001F4FF3CFED81FE818181823049F08530B6
:103B500009F0B5CFED81FE8182810E94FE1C91CFDC
:103B6000AD81BE8112968D919D910D90BC91A02D3D
:103B700089839A83AB83BC83BC01CD010E94AE29AB
:103B80000E94D61C7ECFAD81BE8113964C911397B7
:103B900012966C91129711968C910E94721598272B
:103BA00089279827ED81FE81958384836ACFAD8133
:103BB000BE8114962D913C911597322723273227E9
:103BC00013964C91139712966C91129711968C91B3
:103BD0000E94941556CF0E94B01553CF6F2D8D8142
:103BE0009E810E94141D4DCF0E941D16ED81FE8105
:103BF000818347CF0E941F16982789279827AD8178
:103C0000BE8112969C938E9311973BCFED81FE81DE
:103C1000638170E081819281AF014C5F5F4F982793
:103C2000892798270E9422162CCFAD81BE8113963A
:103C30006C91139770E011968D919C911297AD0144
:103C40004C5F5F4F9827892798270E94441619CF09
:103C50000E94651616CF0E946015C8CFAD81BE8147
:103C600013966C91139770E011968D919C91129719
:103C7000AD014C5F5F4F9827892798270E94D01588
:103C800000CFED81FE81638170E081819281AF017F
:103C90004C5F5F4F9827892798270E94F115F1CE36
:103CA000909396028093950208950E94B01281111C
:103CB00003C0809190020895E0919502F0919602E0
:103CC000309729F00190F081E02D0995089580E06A
:103CD0000895E0919502F0919602309721F00280CC
:103CE000F381E02D09950895DC01E0919502F091B2
:103CF0009602309739F082E08C930680F781E02DB0
:103D0000CD0109950895A3E0B0E0E9E8FEE10C9447
:103D1000C5299C0180919302909194028217930788
:103D2000A1F03093940220939302E0919502F091D8
:103D30009602309751F083E089833B832A83008485
:103D4000F185E02DCE01019609952396E2E00C94D1
:103D5000E129A3E0B0E0EFEAFEE10C94C5299C0163
:103D6000809191029091920282179307A1F0309373
:103D7000920220939102E0919502F0919602309781
:103D800051F084E089833B832A830084F185E02D10
:103D9000CE01019609952396E2E00C94E129409129
:103DA0000001509101019A012E5F3F4F485F5F4F24
:103DB00080E0F90190812F5F3F4F91118F5F421793
:103DC0005307B9F70895882371F0209100013091CD
:103DD0000101F9013296285F3F4F9191981729F020
:103DE000E217F307D1F780E0089581E008959C0180
:103DF000FC0132968FEF90E04191461751F08F3FD2
:103E000019F4411101C0892F9F5F9630A9F78F3FA8
:103E100009F40895280F311D87FD3A95F901628351
:103E200008959C01FC013296285F3F4F81918613D3
:103E300003C0DF0111971C92E217F307B9F7089549
:103E4000682F80910001909101010E94F71E089552
:103E5000682F80910001909101010E94111F089527
:103E6000E0910001F0910101329686E0DF011D92A0
:103E70008A95E9F70895DC01FB0111969C91119751
:103E80008181981322C012968C911297882319F081
:103E9000928189131AC013968C911397882319F075
:103EA0009381891312C015968C911597882319F068
:103EB000958189130AC014969C91992321F081E081
:103EC0002481291303C080E001C081E0817008953E
:103ED00008950E94681F08958F5F809397020E9443
:103EE000691F089583E0809397020E94691F0895D7
:103EF0000E946C1F089581E0809397020E94691FC1
:103F000008950E947B1F0895089508950E94851FBB
:103F10000895089508950E94841F0895CF930E94E4
:103F2000891F0E9410120E948A1FC0E08C2F0E94DD
:103F3000E210811105C0CF5FCA30C1F7CF9108955B
:103F400081E0FCCF85B7806885BF85B7806885BF75
:103F500008951F921FB61F9211248F939F93AF93C2
:103F6000BF9380919802811113C08091BF029091FC
:103F7000C002A091C102B091C2024196A11DB11D23
:103F80008093BF029093C002A093C102B093C2027B
:103F9000BF91AF919F918F911F901FBE1F90189559
:103FA0008091C702843031F10E94CD0310929802B3
:103FB00088E190E020E40FB6F894A8958093600023
:103FC0000FBE2093600083B7817F846083BF83B777
:103FD000816083BF7894889583B78E7F83BF0FB647
:103FE000F894A89580916000886180936000109299
:103FF00060000FBE08950E944B070E94D2030895EF
:1040000082E084BD93E095BD9AEF97BD80936E00EA
:1040100008952FB7F8948091BF029091C002A091AB
:10402000C102B091C2022FBF0895A4E0B0E0EBE15D
:10403000F0E20C94C5298FB7F8942091BF0230911B
:10404000C0024091C1025091C20229833A834B833E
:104050005C838FBF69817A818B819C812496E2E0A9
:104060000C94E1299C014FB7F8948091BF02909184
:10407000C002A091C102B091C2024FBF821B930B3C
:104080000895A4E0B0E0E7E4F0E20C94C329462FE1
:10409000572FBC012FB7F8948091BF029091C002B6
:1040A000A091C102B091C2022FBF8C019D01041BDF
:1040B000150B260B370BC901B8012496E4E00C94CC
:1040C000DF2978941F921FB61F9211248F939F931C
:1040D000AF93BF938091BF029091C002A091C102A3
:1040E000B091C2020196A11DB11D8093BF029093B1
:1040F000C002A093C102B093C202BF91AF919F9141
:104100008F911F901FBE1F90189581E08093E00053
:1041100080E28093D8001092C9008FE19EE401975D
:10412000F1F700C0000087E090EBDC018093D00243
:104130009093D102A093D202B093D30288E19CE085
:104140000FB6F894A895809360000FBE909360001E
:10415000FFCF88E19CE00FB6F894A89580936000AB
:104160000FBE90936000FFCF8EE1489B03C081504B
:104170008111FBCF489BFECF0895589880E28A9525
:10418000F1F7589A0895FC012BE02A95F1F728E001
:1041900090E080E031E040E14A95F1F7880F489BDC
:1041A00002C08160932742E04A95F1F7000040E1A8
:1041B0004A95F1F721502111EECF20E12A95F1F730
:1041C00029B132E03A95F1F7000040E14A95F1F764
:1041D000217092272081920F90830895A1E0B0E092
:1041E000E4EFF0E20C94C12919828C017C01E60E07
:1041F000F11C0E151F0541F481E09981911180E0B9
:104200002196E6E00C94DD290E94B420CE010196AF
:104210000E94C320F80181938F01EBCF509A589AE6
:1042200008955098589AE89AE9E6F0E080818C7FEA
:10423000808308956150770B91E001C0990F6A95D2
:10424000EAF7692F90E021E0611108C0992399F005
:10425000589A80E28A95F1F758980895362F3823B6
:10426000332339F0589A922730E23A95F1F7669560
:10427000EBCF5898F9CF5898ECCFFF920F931F933C
:10428000CF93DF93EC018C01060F111DC017D107EE
:1042900029F4CDB7DEB7E5E00C94DE29F9900E9451
:1042A000BD2068E08F2D0E941A21F0CF1F920F923F
:1042B0000FB60F9211240F931F932F933F934F9399
:1042C0005F936F937F938F939F93AF93BF93EF937E
:1042D000FF93CF93DF930F92CDB7DEB719820E9481
:1042E000B420CE0101960E94C320082F06950695A2
:1042F0000695982F92959570202F2570920F292F53
:10430000237096959695920F982797708981892B9F
:1043100081115CC0053008F059C080E18A95F1F741
:10432000589A509A82E08A95F1F700C0589888E030
:10433000089F80011124D801AD5FBE4F1696ED9104
:10434000FC9117973097A9F06091B1017091B2017B
:1043500014962D913C911597260F371F11968D912C
:104360009C911297680F791F13964C9113978C911B
:104370000995F801ED5FFE4F6381662351F02091AE
:10438000B1013091B20184819581820F931F0E9407
:104390003D210E94BD2080E18A95F1F75898509800
:1043A000589A80E18A95F1F7F801ED5FFE4F608140
:1043B000662351F02091B1013091B2018181928147
:1043C000820F931F0E94EE200E94B4200F90DF9175
:1043D000CF91FF91EF91BF91AF919F918F917F917D
:1043E0006F915F914F913F912F911F910F910F907E
:1043F0000FBE0F901F9018950F931F93CF93DF93CD
:104400008C0105970CF065C0F894509A589885E097
:104410008A95F1F70000C02FC695C570802F857072
:10442000C80F8C2F8370C695C69593E0000F111F9F
:104430009A95E1F7C80FC8018C2BEC010E94BD20B2
:1044400000C068E08C2F0E941A2190E19A95F1F744
:104450005098589A489B35C087E090E0489933C0FF
:10446000F801ED5FFE4F6381662361F02091B10199
:104470003091B20184819581820F931F0E94EE20BA
:10448000882321F10E94B42080E28A95F1F75898A0
:10449000509A90E19A95F1F7F801ED5FFE4F608137
:1044A000662351F02091B1013091B2018181928156
:1044B000820F931F0E943D210E94BD20789481E0CD
:1044C00009C000C0C7CF0197009749F4509A589A85
:1044D000789480E0DF91CF911F910F91089500C0F3
:1044E000BDCF8091A10208950895282FCB01BA0174
:1044F0003091C7023430E1F42F702093E9002FEFA0
:104500003091E80035FD07C035ED3A95F1F7000030
:1045100021502111F5CF2091E80025FF09C040E08E
:1045200050E00E94B8248091E8008E778093E800E4
:104530000895BC0143E050E084E00E947522089594
:10454000BC0146E050E084E00E9475220895CF93BC
:10455000DF93D82FC92F48E050E0682F792F81E0F2
:104560000E94752288E0ED2FFC2FA9E9B2E00190AE
:104570000D928A95E1F7DF91CF910895792F6032FE
:1045800031F440E250E0682F82E00E9475220895E5
:104590008091C602811109C00E948F260E94EC26DC
:1045A0008091E20084608093E20008951092C60238
:1045B00008950E947B1F08956091C30281E06111FC
:1045C00001C080E00E94721F08959091C70281E0AF
:1045D000943009F080E06091C3020E94781F089532
:1045E00042E061EC81E00E940B2642E261EC84E053
:1045F0000E940B2642E261EC82E00E940B2642E21E
:1046000060EC83E00E940B269091C70281E0943019
:1046100009F080E06091C3020E946C1F08958091B0
:10462000C902893089F148F4823009F4A1C083308D
:1046300009F45BC0813041F008958A3009F488C0E4
:104640008B3009F46DC008958091C802813A09F059
:104650004BC08091E800877F8093E8008091CC0276
:104660009091CD02892B61F060E080E090E070E0F5
:104670000E9456258091E8008B778093E80008958A
:1046800068E089E992E0F3CF8091C802813261F558
:104690008091CC029091CD028D7F892B29F580915C
:1046A000E800877F8093E8008091E80082FF18C0CF
:1046B0009091F3008091F200029731F48091F10023
:1046C000813011F0863021F48091F1008093A102B5
:1046D0008091E8008B778093E8000E943F2604C019
:1046E0008091C7028111E0CF08958091C802813A7C
:1046F000D9F78091CC029091CD02892BA9F78091B6
:10470000E800877F8093E8008091E80080FFFCCF7D
:10471000809138018093F1008091E8008E77DBCFA3
:104720008091C802813201F78091CC029091CD0234
:10473000892BD1F68091E800877F8093E8000E9462
:104740003F268091CA02809338010E944B0708954A
:104750008091C802813241F68091E800877F809382
:10476000E8000E943F268091CB028093A202089528
:104770008091C802813A09F0B7CF8091E800877F25
:104780008093E8008091E80080FFFCCF8091A20236
:10479000C1CF84B7877F84BF0FB6F894A895809166
:1047A0006000886180936000109260000FBE80E816
:1047B00090E00FB6F89480936100909361000FBE73
:1047C0000E94811F08950E948F260E94EC26E2EE2F
:1047D000F0E080818460808378940E946F2908953E
:1047E0008EE291E00E94501E08958091C7028530AC
:1047F00031F48091C702853019F00E94FB1F0895A3
:104800000E94D01F8091C502882399F30E948E1FB9
:10481000882379F30E94A2240E944B07EACFA0E2EA
:10482000B0E0E5E1F4E20C94C5298091C702843040
:1048300081F483E08093E9008091E80082FF09C061
:104840008091E80085FD09C08091E8008B77809316
:10485000E800A096E2E00C94E12940E050E060E23C
:1048600070E0CE0101960E9407258091E8008B77C9
:104870008093E80060E2CE0101960E94191DE9CF05
:104880009A014091CE025091CF020E94482408958F
:10489000AC01CB01D901252F33272330310521F17C
:1048A00068F42130310509F443C02230310509F4A0
:1048B00044C080E090E020E030E024C021323105A7
:1048C00051F122323105A9F78330910590F7FC01AF
:1048D000EE0FFF1FEA54FE4F208131818D549E4F11
:1048E000FC01808190E00EC0CA019927413069F037
:1048F0008230910569F0E6ECF3E0892BD1F68491E2
:1049000090E09F012D933C930895E8EAF3E0F7CF00
:10491000ECE8F3E0F4CF8330910558F6FC01EE0F9C
:10492000FF1FE454FE4F2081318189E090E0EACFFF
:1049300082E190E025E234E0E5CF8BE590E02AECDF
:1049400033E0E0CF80E189BD82E189BD09B400FE9A
:10495000FDCF8091D8008F7D8093D8008091E000BA
:1049600082608093E0008091E00081FDFCCF08959B
:10497000AF92BF92CF92DF92FF920F931F93CF938C
:10498000DF936C01EB018A010E945E26F82E8111F3
:1049900023C00115110539F0F80180819181C81BF0
:1049A000D90BC80ED91EA12CB12C2097A9F080914B
:1049B000E80085FD22C08091E8008E778093E800B2
:1049C00001151105A1F0F801808191818A0D9B1DCF
:1049D0009183808385E0F82E8F2DDF91CF911F91F9
:1049E0000F91FF90DF90CF90BF90AF9008950E94FD
:1049F0005E268823E1F2F82EEFCFF60181916F0158
:104A00008093F1002197FFEFAF1ABF0ACECFAF928C
:104A1000BF92CF92DF92FF920F931F93CF93DF93BA
:104A20006C01EB018A010E945E26F82E811123C0E1
:104A30000115110539F0F80180819181C81BD90B4E
:104A4000C80ED91EA12CB12C2097A9F08091E800A6
:104A500085FD22C08091E8008B778093E8000115E6
:104A60001105A1F0F801808191818A0D9B1D918330
:104A7000808385E0F82E8F2DDF91CF911F910F91CC
:104A8000FF90DF90CF90BF90AF9008950E945E2678
:104A90008823E1F2F82EEFCF8091F100F6018193A7
:104AA0006F012197FFEFAF1ABF0ACECFFC019B0128
:104AB0008091CE029091CF028617970718F0672B4E
:104AC00061F0C90140E0009771F441110CC0809180
:104AD000E80082FF35C080E008958091E8008E777D
:104AE0008093E800EECF2091C7022223A9F1253060
:104AF000A9F12091E80023FD2DC02091E80022FDBE
:104B0000E6CF2091E80020FFDECF3091F300209126
:104B1000F200009719F02830310558F041E02830B4
:104B2000310509F040E02091E8002E772093E8005D
:104B3000CACF41914093F10001972F5F3F4FE9CFDA
:104B40008091C702882341F0853041F08091E800D0
:104B500083FFBDCF81E0089582E0089583E008954A
:104B6000FC019B018091CE029091CF02861797079E
:104B700018F0672B61F0C90140E0009771F4411112
:104B80000CC08091E80082FF36C080E008958091DB
:104B9000E8008E778093E800EECF2091C7022223B1
:104BA000B1F12530B1F12091E80023FD2EC0209114
:104BB000E80022FDE6CF2091E80020FFDECF309113
:104BC000F3002091F200009719F02830310558F0D9
:104BD00041E02830310509F040E02091E8002E77CF
:104BE0002093E800CACF44914093F1003196019799
:104BF0002F5F3F4FE8CF8091C702882341F0853077
:104C000041F08091E80083FFBCCF81E0089582E00D
:104C1000089583E00895982F973028F08F7080933F
:104C2000E90081E008959093E900242F762F50E069
:104C3000981731F07091EC002091ED005091F00048
:104C400021FD02C09F5FE8CF3091EB003E7F3093A3
:104C5000EB003091ED003D7F3093ED003091EB00A3
:104C600031603093EB007093EC002093ED00509393
:104C7000F0002091EE0027FDE5CF80E008958091BF
:104C8000C80287FF13C08091E80082FF06C08091B0
:104C9000E8008B778093E80004C08091C7028111FF
:104CA000F2CF08958091C7028823D9F38091E8005C
:104CB00080FFF8CF8091E8008E77ECCF2091E40060
:104CC0003091E50095E6A9018091EC008170882380
:104CD00031F08091E80080FF06C080E008952091C7
:104CE000E80022FD1BC08091C702882391F0853027
:104CF00091F08091EB0085FD10C02091E40030918F
:104D0000E5004217530701F391509111DCCF84E085
:104D1000089582E0089583E0089581E008950E9457
:104D2000FE260E940627E0EEF0E08081816080830D
:104D3000E8EDF0E080818F77808319BCA7EDB0E0CB
:104D40008C918E7F8C9380818F7E80831092C6029F
:104D500008950F931F93CF93DF930E94FE260E9426
:104D60000627C8EDD0E088818F77888388818068A6
:104D7000888388818F7D888319BC1092C702109226
:104D8000C3021092C5021092C40200EE10E0F801B6
:104D900080818B7F808388818160888342E060E0AE
:104DA00080E00E940B26E1EEF0E080818E7F808320
:104DB000E2EEF0E080818160808380818860808382
:104DC000F80180818E7F8083888180618883DF9174
:104DD000CF911F910F910895E8EDF0E080818F7ED3
:104DE0008083E7EDF0E080818160808384E082BF92
:104DF00081E08093C6020E94A9260895E8EDF0E0C4
:104E000080818E7F80831092E20008951092DA00F4
:104E10001092E10008951F920F920FB60F92112485
:104E20002F933F934F935F936F937F938F939F93B2
:104E3000AF93BF93EF93FF938091E10082FF0BC08C
:104E40008091E20082FF07C08091E1008B7F809318
:104E5000E1000E946E298091DA0080FF19C08091E4
:104E6000D80080FF15C08091DA008E7F8093DA0031
:104E70008091D90080FF94C080E189BD82E189BD25
:104E800009B400FEFDCF81E08093C7020E94C822D2
:104E90008091E10080FF19C08091E20080FF15C081
:104EA0008091E2008E7F8093E2008091E200806139
:104EB0008093E2008091D80080628093D80019BC72
:104EC00085E08093C7020E94DC228091E10084FF8C
:104ED00029C08091E20084FF25C080E189BD82E184
:104EE00089BD09B400FEFDCF8091D8008F7D8093ED
:104EF000D8008091E1008F7E8093E1008091E200F4
:104F00008F7E8093E2008091E20081608093E200D6
:104F10008091C302882309F449C084E08093C702CA
:104F20000E94E5228091E10083FF29C08091E20088
:104F300083FF25C08091E100877F8093E10082E0BC
:104F40008093C7021092C3028091E1008E7F80930C
:104F5000E1008091E2008E7F8093E2008091E20088
:104F600080618093E20042E060E080E00E940B26D6
:104F70008091F00088608093F0000E94D922FF9118
:104F8000EF91BF91AF919F918F917F916F915F91C1
:104F90004F913F912F910F900FBE0F901F9018953A
:104FA00019BC1092C7020E94D62272CF8091E300F2
:104FB00087FF02C083E0B2CF81E0B0CF1F920F9293
:104FC0000FB60F921124FF920F931F932F933F93CD
:104FD0004F935F936F937F938F939F93AF93BF9301
:104FE000CF93DF93EF93FF9309EE10E0F8018081F8
:104FF000C091EC00C795CC27C7958F70FC2EF82A7E
:105000001082C0EFD0E08881877F888378940E94E7
:105010002728F8011082888188608883CF2DCF707F
:10502000C083FF91EF91DF91CF91BF91AF919F919D
:105030008F917F916F915F914F913F912F911F9130
:105040000F91FF900F900FBE0F901F901895AAE23E
:10505000B0E0EDE2F8E20C94C42988EC92E0FC01A7
:1050600001962091F100208322E0803D9207B9F75C
:105070000E940F238091E80083FF38C08091C8020E
:105080009091C9029A3090F5E92FF0E0EC53F54D7C
:105090000C94A829803889F0823841F58091CC029F
:1050A0008F70873018F58093E9008091EB0085FBC5
:1050B000882780F91092E90006C08091C40290917F
:1050C000C502911182609091E800977F9093E8006B
:1050D0008093F1001092F1008091E8008E7723C058
:1050E000811116C08091CA02813011F18091E800CF
:1050F00083FF0AC08091E800877F8093E800809159
:10510000EB0080628093EB00AA96E3E00C94E02928
:10511000823061F78091CA02882389F01092E900F9
:105120008091E800877F8093E8000E943F26DECFD1
:1051300081E0933009F080E08093C502EFCF809149
:10514000CC028F702FEF280F263080F68093E90075
:105150002091EB0020FFE2CF933031F48091EB00FF
:1051600080628093EB00DACF9091EB009061909396
:10517000EB0021E030E0A90102C0440F551F8A95E1
:10518000E2F74093EA001092EA008091EB00886019
:10519000E8CF8111ABCF1091CA021F778091E30055
:1051A0008078812B8093E3008091E800877F809353
:1051B000E8000E943F268091E80080FFFCCF8091AC
:1051C000E30080688093E30083E0111101C082E076
:1051D0008093C7028BCF8058823008F087CF8091B0
:1051E000CA029091CB028C3D53E0950799F583E07C
:1051F0008A838AE289834FB7F894DE01139620E010
:105200003EE051E2E32FF0E050935700849120FFFD
:1052100003C082958F703F5F8F708A30C8F0895CC1
:1052200090E08D939D932F5F243161F74FBF809164
:10523000E800877F8093E8006AE270E0CE01019683
:105240000E9456258091E8008B778093E8004ECF2E
:10525000805DE6CF6091CC027091CD02AE014F5FD0
:105260005F4F0E944024BC01892B09F43FCF8091FD
:10527000E800877F8093E80089819A810E94B025A9
:10528000E1CF803809F032CF8091E800877F8093AA
:10529000E8008091C3028093F1001ECF811126CFD8
:1052A0009091CA02923008F021CF8091E800877F68
:1052B0008093E8009093C3020E943F268091C3022E
:1052C000882331F084E08093C7020E94F0220ECF41
:1052D0008091E30087FDF6CF81E0F5CF0895CF936D
:1052E0008091C702882399F08091E900C091EC0079
:1052F000C795CC27C7958F70C82B1092E900809175
:10530000E80083FD0E942728CF70C093E900CF9169
:1053100008950E948F261092C70208958091E3009D
:10532000881F8827881F089597FB072E16F400947E
:1053300007D077FD09D00E94EC2907FC05D03EF488
:10534000909581959F4F0895709561957F4F089531
:10535000EE0FFF1F0590F491E02D09946927962721
:10536000692778278727782708952F923F924F92B1
:105370005F926F927F928F929F92AF92BF92CF92E5
:10538000DF92EF92FF920F931F93CF93DF93CDB7EE
:10539000DEB7CA1BDB0B0FB6F894DEBF0FBECDBF66
:1053A00009942A88398848885F846E847D848C8437
:1053B0009B84AA84B984C884DF80EE80FD800C8140
:1053C0001B81AA81B981CE0FD11D0FB6F894DEBF23
:1053D0000FBECDBFED010895AA1BBB1B51E107C055
:1053E000AA1FBB1FA617B70710F0A61BB70B881F75
:1053F000991F5A95A9F780959095BC01CD01089504
:10540000FB01DC0104C08D910190801921F4415011
:105410005040C8F7881B990B0895FB01DC0102C0BE
:1054200001900D9241505040D8F70895F999FECF60
:1054300092BD81BDF89A992780B50895A8E1B0E0A2
:1054400042E050E00C945A2ADC01A40FB51F4150F1
:10545000504048F0CB01840F951F2E910E94352AB1
:1054600041505040D0F70895262FF999FECF92BDB4
:1054700081BDF89A019700B4021639F01FBA20BD19
:105480000FB6F894FA9AF99A0FBE08950396272F4B
:105490000E94352A0E94342A252F0E94352A242F63
:1054A0000C94352A0196272F0E94352A0C94342A11
:1054B000DC01CB01FC01F999FECF06C0F2BDE1BDD4
:1054C000F89A319600B40D9241505040B8F70895C3
:1054D000F894FFCF4105410588058805ED050A06CA
:1054E000700570050F067C068D068D067617EA1787
:1054F0007E1748174C1782175017861792175C179C
:10550000E3176017961764179A17C21768179E1744
:10551000C9176E17A417AC1754178A1758178E1788
:105520007217A817B817D217E11742177A17F11791
:10553000B018B318B918CE18CE18CE18CE18CE1889
:10554000CE18CE18CE18BC18C118C518CB18DC1848
:10555000E218E6182A1C301C1A1C241C361C3C1CA1
:10556000421C3C1D541DA21DC31DD71DEB1DEE1D6D
:10557000EE1DEE1D5F1D5F1DF41DFA1D061E151E9E
:10558000281E2B1E2E1E411E4A28702876287028A1
:0C5590007628C928EB28762841294E29EE
:10559C0033020100000001000000000000000501C2
:1055AC000000000506000000000000040B000000D5
:1055BC00000000280850011E0A1401030201712288
:1055CC00A7227422A022992201E200E900EA00B588
:1055DC0000B600B700CD008301CC008A0192019483
:1055EC00012102230224022502260227022A02B3E9
:1055FC0000B4006F0070009F01CB019F02A002E27B
:10560C0000E900EA00B500B600B700CD008301CC7C
:10561C00008A019201940121022302240225022610
:10562C000227022A02B300B4006F0070009F01CB66
:10563C00019F02A002F4F5F6F73133329497C63489
:10564C00355B0244227BD40437045904DC03F50394
:02565C00150433
:00000001FF
